{
  "_format": "hh-sol-artifact-1",
  "contractName": "VotingSystem",
  "sourceName": "contracts/VotingSystem.sol",
  "abi": [
    {
      "inputs": [],
      "stateMutability": "nonpayable",
      "type": "constructor"
    },
    {
      "inputs": [
        {
          "internalType": "address",
          "name": "target",
          "type": "address"
        }
      ],
      "name": "AddressEmptyCode",
      "type": "error"
    },
    {
      "inputs": [
        {
          "internalType": "address",
          "name": "implementation",
          "type": "address"
        }
      ],
      "name": "ERC1967InvalidImplementation",
      "type": "error"
    },
    {
      "inputs": [],
      "name": "ERC1967NonPayable",
      "type": "error"
    },
    {
      "inputs": [],
      "name": "FailedCall",
      "type": "error"
    },
    {
      "inputs": [],
      "name": "InvalidInitialization",
      "type": "error"
    },
    {
      "inputs": [],
      "name": "NotInitializing",
      "type": "error"
    },
    {
      "inputs": [
        {
          "internalType": "address",
          "name": "owner",
          "type": "address"
        }
      ],
      "name": "OwnableInvalidOwner",
      "type": "error"
    },
    {
      "inputs": [
        {
          "internalType": "address",
          "name": "account",
          "type": "address"
        }
      ],
      "name": "OwnableUnauthorizedAccount",
      "type": "error"
    },
    {
      "inputs": [],
      "name": "UUPSUnauthorizedCallContext",
      "type": "error"
    },
    {
      "inputs": [
        {
          "internalType": "bytes32",
          "name": "slot",
          "type": "bytes32"
        }
      ],
      "name": "UUPSUnsupportedProxiableUUID",
      "type": "error"
    },
    {
      "anonymous": false,
      "inputs": [
        {
          "indexed": false,
          "internalType": "address",
          "name": "oldAdmin",
          "type": "address"
        },
        {
          "indexed": false,
          "internalType": "address",
          "name": "newAdmin",
          "type": "address"
        }
      ],
      "name": "AdminChanged",
      "type": "event"
    },
    {
      "anonymous": false,
      "inputs": [
        {
          "indexed": true,
          "internalType": "uint256",
          "name": "electionId",
          "type": "uint256"
        },
        {
          "indexed": false,
          "internalType": "string",
          "name": "name",
          "type": "string"
        },
        {
          "indexed": false,
          "internalType": "uint256",
          "name": "startTime",
          "type": "uint256"
        },
        {
          "indexed": false,
          "internalType": "uint256",
          "name": "endTime",
          "type": "uint256"
        }
      ],
      "name": "ElectionCreated",
      "type": "event"
    },
    {
      "anonymous": false,
      "inputs": [
        {
          "indexed": false,
          "internalType": "uint64",
          "name": "version",
          "type": "uint64"
        }
      ],
      "name": "Initialized",
      "type": "event"
    },
    {
      "anonymous": false,
      "inputs": [
        {
          "indexed": true,
          "internalType": "address",
          "name": "previousOwner",
          "type": "address"
        },
        {
          "indexed": true,
          "internalType": "address",
          "name": "newOwner",
          "type": "address"
        }
      ],
      "name": "OwnershipTransferred",
      "type": "event"
    },
    {
      "anonymous": false,
      "inputs": [
        {
          "indexed": true,
          "internalType": "address",
          "name": "implementation",
          "type": "address"
        }
      ],
      "name": "Upgraded",
      "type": "event"
    },
    {
      "anonymous": false,
      "inputs": [
        {
          "indexed": true,
          "internalType": "uint256",
          "name": "electionId",
          "type": "uint256"
        },
        {
          "indexed": false,
          "internalType": "uint256",
          "name": "candidateIndex",
          "type": "uint256"
        },
        {
          "indexed": false,
          "internalType": "bytes32",
          "name": "voterHash",
          "type": "bytes32"
        }
      ],
      "name": "VoteCast",
      "type": "event"
    },
    {
      "inputs": [],
      "name": "UPGRADE_INTERFACE_VERSION",
      "outputs": [
        {
          "internalType": "string",
          "name": "",
          "type": "string"
        }
      ],
      "stateMutability": "view",
      "type": "function"
    },
    {
      "inputs": [],
      "name": "admin",
      "outputs": [
        {
          "internalType": "address",
          "name": "",
          "type": "address"
        }
      ],
      "stateMutability": "view",
      "type": "function"
    },
    {
      "inputs": [
        {
          "internalType": "uint256",
          "name": "_electionId",
          "type": "uint256"
        },
        {
          "internalType": "uint256",
          "name": "_candidateIndex",
          "type": "uint256"
        },
        {
          "internalType": "bytes32",
          "name": "_voterNINHash",
          "type": "bytes32"
        }
      ],
      "name": "castVote",
      "outputs": [],
      "stateMutability": "nonpayable",
      "type": "function"
    },
    {
      "inputs": [
        {
          "internalType": "address",
          "name": "newAdmin",
          "type": "address"
        }
      ],
      "name": "changeAdmin",
      "outputs": [],
      "stateMutability": "nonpayable",
      "type": "function"
    },
    {
      "inputs": [
        {
          "internalType": "uint256",
          "name": "_electionId",
          "type": "uint256"
        },
        {
          "internalType": "bytes32",
          "name": "_voterNINHash",
          "type": "bytes32"
        }
      ],
      "name": "checkVoterStatus",
      "outputs": [
        {
          "internalType": "bool",
          "name": "",
          "type": "bool"
        }
      ],
      "stateMutability": "view",
      "type": "function"
    },
    {
      "inputs": [
        {
          "internalType": "string",
          "name": "_name",
          "type": "string"
        },
        {
          "internalType": "uint256",
          "name": "_startTime",
          "type": "uint256"
        },
        {
          "internalType": "uint256",
          "name": "_endTime",
          "type": "uint256"
        },
        {
          "internalType": "string[]",
          "name": "_candidateNames",
          "type": "string[]"
        },
        {
          "internalType": "string[]",
          "name": "_candidateParties",
          "type": "string[]"
        }
      ],
      "name": "createElection",
      "outputs": [],
      "stateMutability": "nonpayable",
      "type": "function"
    },
    {
      "inputs": [],
      "name": "currentElectionId",
      "outputs": [
        {
          "internalType": "uint256",
          "name": "",
          "type": "uint256"
        }
      ],
      "stateMutability": "view",
      "type": "function"
    },
    {
      "inputs": [
        {
          "internalType": "uint256",
          "name": "",
          "type": "uint256"
        }
      ],
      "name": "electionsInfo",
      "outputs": [
        {
          "internalType": "string",
          "name": "name",
          "type": "string"
        },
        {
          "internalType": "uint256",
          "name": "startTime",
          "type": "uint256"
        },
        {
          "internalType": "uint256",
          "name": "endTime",
          "type": "uint256"
        },
        {
          "internalType": "bool",
          "name": "exists",
          "type": "bool"
        }
      ],
      "stateMutability": "view",
      "type": "function"
    },
    {
      "inputs": [],
      "name": "getActiveElectionId",
      "outputs": [
        {
          "internalType": "uint256",
          "name": "",
          "type": "uint256"
        }
      ],
      "stateMutability": "view",
      "type": "function"
    },
    {
      "inputs": [
        {
          "internalType": "uint256",
          "name": "_electionId",
          "type": "uint256"
        }
      ],
      "name": "getAllCandidates",
      "outputs": [
        {
          "internalType": "string[]",
          "name": "names",
          "type": "string[]"
        },
        {
          "internalType": "string[]",
          "name": "parties",
          "type": "string[]"
        },
        {
          "internalType": "uint256[]",
          "name": "votesCounts",
          "type": "uint256[]"
        }
      ],
      "stateMutability": "view",
      "type": "function"
    },
    {
      "inputs": [
        {
          "internalType": "uint256",
          "name": "_electionId",
          "type": "uint256"
        },
        {
          "internalType": "uint256",
          "name": "_candidateIndex",
          "type": "uint256"
        }
      ],
      "name": "getCandidate",
      "outputs": [
        {
          "internalType": "string",
          "name": "name",
          "type": "string"
        },
        {
          "internalType": "string",
          "name": "party",
          "type": "string"
        },
        {
          "internalType": "uint256",
          "name": "votes",
          "type": "uint256"
        }
      ],
      "stateMutability": "view",
      "type": "function"
    },
    {
      "inputs": [
        {
          "internalType": "uint256",
          "name": "_electionId",
          "type": "uint256"
        }
      ],
      "name": "getElectionInfo",
      "outputs": [
        {
          "internalType": "string",
          "name": "name",
          "type": "string"
        },
        {
          "internalType": "uint256",
          "name": "startTime",
          "type": "uint256"
        },
        {
          "internalType": "uint256",
          "name": "endTime",
          "type": "uint256"
        },
        {
          "internalType": "bool",
          "name": "active",
          "type": "bool"
        },
        {
          "internalType": "uint256",
          "name": "candidateCount",
          "type": "uint256"
        }
      ],
      "stateMutability": "view",
      "type": "function"
    },
    {
      "inputs": [
        {
          "internalType": "uint256",
          "name": "_electionId",
          "type": "uint256"
        }
      ],
      "name": "getTotalVotes",
      "outputs": [
        {
          "internalType": "uint256",
          "name": "",
          "type": "uint256"
        }
      ],
      "stateMutability": "view",
      "type": "function"
    },
    {
      "inputs": [
        {
          "internalType": "uint256",
          "name": "",
          "type": "uint256"
        },
        {
          "internalType": "bytes32",
          "name": "",
          "type": "bytes32"
        }
      ],
      "name": "hasVoted",
      "outputs": [
        {
          "internalType": "bool",
          "name": "",
          "type": "bool"
        }
      ],
      "stateMutability": "view",
      "type": "function"
    },
    {
      "inputs": [
        {
          "internalType": "address",
          "name": "initialAdmin",
          "type": "address"
        }
      ],
      "name": "initialize",
      "outputs": [],
      "stateMutability": "nonpayable",
      "type": "function"
    },
    {
      "inputs": [],
      "name": "owner",
      "outputs": [
        {
          "internalType": "address",
          "name": "",
          "type": "address"
        }
      ],
      "stateMutability": "view",
      "type": "function"
    },
    {
      "inputs": [],
      "name": "proxiableUUID",
      "outputs": [
        {
          "internalType": "bytes32",
          "name": "",
          "type": "bytes32"
        }
      ],
      "stateMutability": "view",
      "type": "function"
    },
    {
      "inputs": [],
      "name": "renounceOwnership",
      "outputs": [],
      "stateMutability": "nonpayable",
      "type": "function"
    },
    {
      "inputs": [
        {
          "internalType": "address",
          "name": "newOwner",
          "type": "address"
        }
      ],
      "name": "transferOwnership",
      "outputs": [],
      "stateMutability": "nonpayable",
      "type": "function"
    },
    {
      "inputs": [
        {
          "internalType": "address",
          "name": "newImplementation",
          "type": "address"
        },
        {
          "internalType": "bytes",
          "name": "data",
          "type": "bytes"
        }
      ],
      "name": "upgradeToAndCall",
      "outputs": [],
      "stateMutability": "payable",
      "type": "function"
    }
  ],
  "bytecode": "0x60a06040523060805234801561001457600080fd5b5061001d610022565b6100d4565b7ff0c57e16840df040f15088dc2f81fe391c3923bec73e23a9662efc9c229c6a00805468010000000000000000900460ff16156100725760405163f92ee8a960e01b815260040160405180910390fd5b80546001600160401b03908116146100d15780546001600160401b0319166001600160401b0390811782556040519081527fc7f505b2f371ae2175ee4913f4499e1f2633a7b5936321eed1cdaeb6115181d29060200160405180910390a15b50565b6080516121a86100fd600039600081816115400152818161156901526116af01526121a86000f3fe60806040526004361061011f5760003560e01c80638f283970116100a0578063c4d66de811610064578063c4d66de81461037a578063ce99b5df1461039a578063f2fde38b146103cb578063f851a440146103eb578063f9ded6461461040b57600080fd5b80638f283970146102d15780639112c1eb146102f157806398ecf2a014610311578063a089a76614610327578063ad3cb1cc1461033c57600080fd5b80635c583717116100e75780635c583717146101e0578063715018a61461021057806374417bf4146102255780637504e5a0146102605780638da5cb5b1461028057600080fd5b80632ce35e11146101245780634bd46448146101575780634f1ef2861461018657806351e4d4d61461019b57806352d1902d146101cb575b600080fd5b34801561013057600080fd5b5061014461013f3660046119fb565b61043a565b6040519081526020015b60405180910390f35b34801561016357600080fd5b50610177610172366004611a14565b6104ec565b60405161014e93929190611a86565b610199610194366004611b79565b6106ec565b005b3480156101a757600080fd5b506101bb6101b6366004611a14565b61070b565b604051901515815260200161014e565b3480156101d757600080fd5b50610144610786565b3480156101ec57600080fd5b506102006101fb3660046119fb565b6107a3565b60405161014e9493929190611bda565b34801561021c57600080fd5b50610199610858565b34801561023157600080fd5b506101bb610240366004611a14565b600360209081526000928352604080842090915290825290205460ff1681565b34801561026c57600080fd5b5061019961027b366004611c0b565b61086c565b34801561028c57600080fd5b507f9016d09d72d40fdae2fd8ceac6b6234c7706214fd39c1cd1e609a0528c199300546001600160a01b03165b6040516001600160a01b03909116815260200161014e565b3480156102dd57600080fd5b506101996102ec366004611c37565b610ab1565b3480156102fd57600080fd5b5061019961030c366004611d18565b610b8a565b34801561031d57600080fd5b5061014460015481565b34801561033357600080fd5b50610144610f09565b34801561034857600080fd5b5061036d604051806040016040528060058152602001640352e302e360dc1b81525081565b60405161014e9190611dbd565b34801561038657600080fd5b50610199610395366004611c37565b610f6a565b3480156103a657600080fd5b506103ba6103b53660046119fb565b61109f565b60405161014e959493929190611dd0565b3480156103d757600080fd5b506101996103e6366004611c37565b6111c1565b3480156103f757600080fd5b506000546102b9906001600160a01b031681565b34801561041757600080fd5b5061042b6104263660046119fb565b6111ff565b60405161014e93929190611e63565b600060015482106104665760405162461bcd60e51b815260040161045d90611ece565b60405180910390fd5b6000828152600260205260409020600381015460ff166104985760405162461bcd60e51b815260040161045d90611ece565b6000805b60048301548110156104e4578260040181815481106104bd576104bd611f05565b906000526020600020906003020160020154826104da9190611f31565b915060010161049c565b509392505050565b606080600060015485106105125760405162461bcd60e51b815260040161045d90611ece565b6000858152600260205260409020600381015460ff166105445760405162461bcd60e51b815260040161045d90611ece565b600481015485106105915760405162461bcd60e51b8152602060048201526017602482015276092dcecc2d8d2c840c6c2dcc8d2c8c2e8ca40d2dcc8caf604b1b604482015260640161045d565b60008160040186815481106105a8576105a8611f05565b90600052602060002090600302019050806000018160010182600201548280546105d190611f44565b80601f01602080910402602001604051908101604052809291908181526020018280546105fd90611f44565b801561064a5780601f1061061f5761010080835404028352916020019161064a565b820191906000526020600020905b81548152906001019060200180831161062d57829003601f168201915b5050505050925081805461065d90611f44565b80601f016020809104026020016040519081016040528092919081815260200182805461068990611f44565b80156106d65780601f106106ab576101008083540402835291602001916106d6565b820191906000526020600020905b8154815290600101906020018083116106b957829003601f168201915b5050505050915094509450945050509250925092565b6106f4611535565b6106fd826115da565b61070782826115e2565b5050565b6000600154831061072e5760405162461bcd60e51b815260040161045d90611ece565b6000838152600260205260409020600381015460ff166107605760405162461bcd60e51b815260040161045d90611ece565b5050600082815260036020908152604080832084845290915290205460ff165b92915050565b60006107906116a4565b5060008051602061215383398151915290565b6002602052600090815260409020805481906107be90611f44565b80601f01602080910402602001604051908101604052809291908181526020018280546107ea90611f44565b80156108375780601f1061080c57610100808354040283529160200191610837565b820191906000526020600020905b81548152906001019060200180831161081a57829003601f168201915b50505050600183015460028401546003909401549293909290915060ff1684565b6108606116ed565b61086a6000611748565b565b600154831061088d5760405162461bcd60e51b815260040161045d90611ece565b6000838152600260205260409020600381015460ff166108bf5760405162461bcd60e51b815260040161045d90611ece565b80600101544210156109135760405162461bcd60e51b815260206004820152601c60248201527f456c656374696f6e20686173206e6f7420737461727465642079657400000000604482015260640161045d565b806002015442111561095c5760405162461bcd60e51b8152602060048201526012602482015271115b1958dd1a5bdb881a185cc8195b99195960721b604482015260640161045d565b600481015483106109a95760405162461bcd60e51b8152602060048201526017602482015276092dcecc2d8d2c840c6c2dcc8d2c8c2e8ca40d2dcc8caf604b1b604482015260640161045d565b600084815260036020908152604080832085845290915290205460ff1615610a135760405162461bcd60e51b815260206004820152601b60248201527f416c726561647920766f74656420776974682074686973204e494e0000000000604482015260640161045d565b60008481526003602090815260408083208584529091529020805460ff1916600117905560048101805484908110610a4d57610a4d611f05565b600091825260208220600260039092020101805491610a6b83611f7e565b9091555050604080518481526020810184905285917f96c313364ec07441c94195f44ed1e5f2656059c98a7c0c68466dac90c6fd8bf9910160405180910390a250505050565b6000546001600160a01b03163314610adb5760405162461bcd60e51b815260040161045d90611f97565b6001600160a01b038116610b295760405162461bcd60e51b8152602060048201526015602482015274496e76616c69642061646d696e206164647265737360581b604482015260640161045d565b600080546001600160a01b038381166001600160a01b031983168117909355604080519190921680825260208201939093527f7e644d79422f17c01e4894b5f4f588d331ebfa28653d42ae832dc59e38c9798f910160405180910390a15050565b6000546001600160a01b03163314610bb45760405162461bcd60e51b815260040161045d90611f97565b428411610c035760405162461bcd60e51b815260206004820181905260248201527f53746172742074696d65206d75737420626520696e2074686520667574757265604482015260640161045d565b838311610c5c5760405162461bcd60e51b815260206004820152602160248201527f456e642074696d65206d7573742062652061667465722073746172742074696d6044820152606560f81b606482015260840161045d565b8051825114610cc55760405162461bcd60e51b815260206004820152602f60248201527f43616e646964617465206e616d657320616e642070617274696573206d75737460448201526e040c4ca40e6c2daca40d8cadccee8d608b1b606482015260840161045d565b6000825111610d165760405162461bcd60e51b815260206004820181905260248201527f4d7573742068617665206174206c65617374206f6e652063616e646964617465604482015260640161045d565b600180541115610dc35760006002600060018054610d349190611fd9565b81526020810191909152604001600020600381015490915060ff161580610d5e5750428160020154105b610dc15760405162461bcd60e51b815260206004820152602e60248201527f43616e6e6f742063726561746520656c656374696f6e207768696c6520616e6f60448201526d746865722069732061637469766560901b606482015260840161045d565b505b600154600090815260026020526040902080610ddf878261203a565b5060018082018690556002820185905560038201805460ff1916909117905560005b8351811015610ead57816004016040518060600160405280868481518110610e2b57610e2b611f05565b60200260200101518152602001858481518110610e4a57610e4a611f05565b60209081029190910181015182526000918101829052835460018101855593825290208151919260030201908190610e82908261203a565b5060208201516001820190610e97908261203a565b5060409190910151600290910155600101610e01565b506001547fe7a0aae5d733e07e246dea86213a1ac1b0aa8554bde889bb75c12752f44e53d9878787604051610ee4939291906120f8565b60405180910390a260018054906000610efc83611f7e565b9190505550505050505050565b600060015b600154811015610f62576000818152600260205260409020600381015460ff168015610f3e575080600101544210155b8015610f4e575080600201544211155b15610f595750919050565b50600101610f0e565b506000905090565b7ff0c57e16840df040f15088dc2f81fe391c3923bec73e23a9662efc9c229c6a008054600160401b810460ff1615906001600160401b0316600081158015610faf5750825b90506000826001600160401b03166001148015610fcb5750303b155b905081158015610fd9575080155b15610ff75760405163f92ee8a960e01b815260040160405180910390fd5b845467ffffffffffffffff19166001178555831561102157845460ff60401b1916600160401b1785555b61102a866117b9565b6110326117ca565b600080546001600160a01b0319166001600160a01b03881617905560018055831561109757845460ff60401b19168555604051600181527fc7f505b2f371ae2175ee4913f4499e1f2633a7b5936321eed1cdaeb6115181d29060200160405180910390a15b505050505050565b606060008060008060015486106110c85760405162461bcd60e51b815260040161045d90611ece565b6000868152600260205260409020600381015460ff166110fa5760405162461bcd60e51b815260040161045d90611ece565b6001810154600282015482919042821180159061111b575083600201544211155b60048501548454859061112d90611f44565b80601f016020809104026020016040519081016040528092919081815260200182805461115990611f44565b80156111a65780601f1061117b576101008083540402835291602001916111a6565b820191906000526020600020905b81548152906001019060200180831161118957829003601f168201915b50505050509450955095509550955095505091939590929450565b6111c96116ed565b6001600160a01b0381166111f357604051631e4fbdf760e01b81526000600482015260240161045d565b6111fc81611748565b50565b606080606060015484106112255760405162461bcd60e51b815260040161045d90611ece565b6000848152600260205260409020600381015460ff166112575760405162461bcd60e51b815260040161045d90611ece565b6004810154806001600160401b0381111561127457611274611ad8565b6040519080825280602002602001820160405280156112a757816020015b60608152602001906001900390816112925790505b509450806001600160401b038111156112c2576112c2611ad8565b6040519080825280602002602001820160405280156112f557816020015b60608152602001906001900390816112e05790505b509350806001600160401b0381111561131057611310611ad8565b604051908082528060200260200182016040528015611339578160200160208202803683370190505b50925060005b8181101561152b5782600401818154811061135c5761135c611f05565b9060005260206000209060030201600001805461137890611f44565b80601f01602080910402602001604051908101604052809291908181526020018280546113a490611f44565b80156113f15780601f106113c6576101008083540402835291602001916113f1565b820191906000526020600020905b8154815290600101906020018083116113d457829003601f168201915b505050505086828151811061140857611408611f05565b602002602001018190525082600401818154811061142857611428611f05565b9060005260206000209060030201600101805461144490611f44565b80601f016020809104026020016040519081016040528092919081815260200182805461147090611f44565b80156114bd5780601f10611492576101008083540402835291602001916114bd565b820191906000526020600020905b8154815290600101906020018083116114a057829003601f168201915b50505050508582815181106114d4576114d4611f05565b60200260200101819052508260040181815481106114f4576114f4611f05565b90600052602060002090600302016002015484828151811061151857611518611f05565b602090810291909101015260010161133f565b5050509193909250565b306001600160a01b037f00000000000000000000000000000000000000000000000000000000000000001614806115bc57507f00000000000000000000000000000000000000000000000000000000000000006001600160a01b03166115b0600080516020612153833981519152546001600160a01b031690565b6001600160a01b031614155b1561086a5760405163703e46dd60e11b815260040160405180910390fd5b6111fc6116ed565b816001600160a01b03166352d1902d6040518163ffffffff1660e01b8152600401602060405180830381865afa92505050801561163c575060408051601f3d908101601f191682019092526116399181019061211d565b60015b61166457604051634c9c8ce360e01b81526001600160a01b038316600482015260240161045d565b600080516020612153833981519152811461169557604051632a87526960e21b81526004810182905260240161045d565b61169f83836117d2565b505050565b306001600160a01b037f0000000000000000000000000000000000000000000000000000000000000000161461086a5760405163703e46dd60e11b815260040160405180910390fd5b3361171f7f9016d09d72d40fdae2fd8ceac6b6234c7706214fd39c1cd1e609a0528c199300546001600160a01b031690565b6001600160a01b03161461086a5760405163118cdaa760e01b815233600482015260240161045d565b7f9016d09d72d40fdae2fd8ceac6b6234c7706214fd39c1cd1e609a0528c19930080546001600160a01b031981166001600160a01b03848116918217845560405192169182907f8be0079c531659141344cd1fd0a4f28419497f9722a3daafe3b4186f6b6457e090600090a3505050565b6117c1611828565b6111fc81611871565b61086a611828565b6117db82611879565b6040516001600160a01b038316907fbc7cd75a20ee27fd9adebab32041f755214dbc6bffa90cc0225b39da2e5c2d3b90600090a28051156118205761169f82826118de565b610707611954565b7ff0c57e16840df040f15088dc2f81fe391c3923bec73e23a9662efc9c229c6a0054600160401b900460ff1661086a57604051631afcd79f60e31b815260040160405180910390fd5b6111c9611828565b806001600160a01b03163b6000036118af57604051634c9c8ce360e01b81526001600160a01b038216600482015260240161045d565b60008051602061215383398151915280546001600160a01b0319166001600160a01b0392909216919091179055565b6060600080846001600160a01b0316846040516118fb9190612136565b600060405180830381855af49150503d8060008114611936576040519150601f19603f3d011682016040523d82523d6000602084013e61193b565b606091505b509150915061194b858383611973565b95945050505050565b341561086a5760405163b398979f60e01b815260040160405180910390fd5b60608261198857611983826119d2565b6119cb565b815115801561199f57506001600160a01b0384163b155b156119c857604051639996b31560e01b81526001600160a01b038516600482015260240161045d565b50805b9392505050565b8051156119e25780518082602001fd5b60405163d6bda27560e01b815260040160405180910390fd5b600060208284031215611a0d57600080fd5b5035919050565b60008060408385031215611a2757600080fd5b50508035926020909101359150565b60005b83811015611a51578181015183820152602001611a39565b50506000910152565b60008151808452611a72816020860160208601611a36565b601f01601f19169290920160200192915050565b606081526000611a996060830186611a5a565b8281036020840152611aab8186611a5a565b915050826040830152949350505050565b80356001600160a01b0381168114611ad357600080fd5b919050565b634e487b7160e01b600052604160045260246000fd5b604051601f8201601f191681016001600160401b0381118282101715611b1657611b16611ad8565b604052919050565b6000806001600160401b03841115611b3857611b38611ad8565b50601f8301601f1916602001611b4d81611aee565b915050828152838383011115611b6257600080fd5b828260208301376000602084830101529392505050565b60008060408385031215611b8c57600080fd5b611b9583611abc565b915060208301356001600160401b03811115611bb057600080fd5b8301601f81018513611bc157600080fd5b611bd085823560208401611b1e565b9150509250929050565b608081526000611bed6080830187611a5a565b60208301959095525060408101929092521515606090910152919050565b600080600060608486031215611c2057600080fd5b505081359360208301359350604090920135919050565b600060208284031215611c4957600080fd5b6119cb82611abc565b600082601f830112611c6357600080fd5b6119cb83833560208501611b1e565b600082601f830112611c8357600080fd5b81356001600160401b03811115611c9c57611c9c611ad8565b8060051b611cac60208201611aee565b91825260208185018101929081019086841115611cc857600080fd5b6020860192505b83831015611d0e5782356001600160401b03811115611ced57600080fd5b611cfc886020838a0101611c52565b83525060209283019290910190611ccf565b9695505050505050565b600080600080600060a08688031215611d3057600080fd5b85356001600160401b03811115611d4657600080fd5b611d5288828901611c52565b955050602086013593506040860135925060608601356001600160401b03811115611d7c57600080fd5b611d8888828901611c72565b92505060808601356001600160401b03811115611da457600080fd5b611db088828901611c72565b9150509295509295909350565b6020815260006119cb6020830184611a5a565b60a081526000611de360a0830188611a5a565b60208301969096525060408101939093529015156060830152608090910152919050565b600082825180855260208501945060208160051b8301016020850160005b83811015611e5757601f19858403018852611e41838351611a5a565b6020988901989093509190910190600101611e25565b50909695505050505050565b606081526000611e766060830186611e07565b8281036020840152611e888186611e07565b83810360408501528451808252602080870193509091019060005b81811015611ec1578351835260209384019390920191600101611ea3565b5090979650505050505050565b60208082526017908201527f456c656374696f6e20646f6573206e6f74206578697374000000000000000000604082015260600190565b634e487b7160e01b600052603260045260246000fd5b634e487b7160e01b600052601160045260246000fd5b8082018082111561078057610780611f1b565b600181811c90821680611f5857607f821691505b602082108103611f7857634e487b7160e01b600052602260045260246000fd5b50919050565b600060018201611f9057611f90611f1b565b5060010190565b60208082526022908201527f4f6e6c792061646d696e2063616e20706572666f726d2074686973206163746960408201526137b760f11b606082015260800190565b8181038181111561078057610780611f1b565b601f82111561169f57806000526020600020601f840160051c810160208510156120135750805b601f840160051c820191505b81811015612033576000815560010161201f565b5050505050565b81516001600160401b0381111561205357612053611ad8565b612067816120618454611f44565b84611fec565b6020601f82116001811461209b57600083156120835750848201515b600019600385901b1c1916600184901b178455612033565b600084815260208120601f198516915b828110156120cb57878501518255602094850194600190920191016120ab565b50848210156120e95786840151600019600387901b60f8161c191681555b50505050600190811b01905550565b60608152600061210b6060830186611a5a565b60208301949094525060400152919050565b60006020828403121561212f57600080fd5b5051919050565b60008251612148818460208701611a36565b919091019291505056fe360894a13ba1a3210667c828492db98dca3e2076cc3735a920a3ca505d382bbca264697066735822122040389ec87c9afa389f338e59fcae3c25ece3f127ca38f0f5172d0085d98d44d164736f6c634300081c0033",
  "linkReferences": {},
  "deployedLinkReferences": {}
}